:200000000C94F4140C9425150C9425150C9425150C9425150C9425150C9425150C94251542
:200020000C9425150C9425150C9425150C9425150C9425150C9425150C9425150C942515F0
:200040000C9425150C94288E0C9425150C9425150C9425150C9425150C94EFB60C9416BB52
:200060000C9425150C94B23B0C9425150C9425150C9425150C9425150C9425150C942515FD
:200080000C9425150C9425150C9425150C9425150C9425150C9425150C9425150C94251590
:2000A0000C9425150C9425150C9425150C9425150C9425150C9425150C9425150C94251570
:2000C0000C9425150C9425150C9425150C9425150C9425150C9425150C9425150C94251550
:2000E0000C9425151A6923692D6936693F695A69676970694869516903B906B9F5B8F9B88A
:20010000FFB83DB90AB90EB914B918B91CB922B926B92AB93DB930B934B938B932BA37BAFE
:200120003CBA46BA50BAC9BA5ABA62BA6ABA74BA7EBA88BA97BAA1BAC9BAABBAB5BABFBAC4
:20014000084AD73B3BCE016E84BCBFFDC12F3D6C74319ABD56833DDA3D00C77F11BED9E433
:20016000BB4C3E916BAAAABE000000803F05A84CCDB2D44EB93836A9020C50B99186880845
:200180003CA6AAAA2ABE000000803F004E414E494E495459494E46CDCCCC3D0AD7233C1742
:2001A000B7D13877CC2B329595E6241FB14F0A000020410000C84200401C4620BCBE4CCAC5
:2001C0001B0E5AAEC59D74434F4D4D554E49434154494F4E0044525952554E004552524F26
:2001E000525300494E464F004543484F0020746F6F206C6F6E6720657874727573696F6EBC
:200200002070726576656E7465640A0020636F6C6420657874727573696F6E207072657637
:20022000656E7465640A0047322F47332062616420706172616D65746572730A00536C65B9
:2002400065702E2E2E00486F6D6520257325732573206669727374002066697273740A0034
:200260005A0059005800486F6D652000526573756D696E67207072696E74004D61676E614F
:2002800020492072656164792E00436C69636B20746F20726573756D652E2E2E004E6F2091
:2002A0006D6F76652E00456E642066696C65206C6973740A00426567696E2066696C6520D7
:2002C0006C6973740A0046696C652064656C657465643A0044656C6574696F6E2066616923
:2002E0006C65642C2046696C653A20006F70656E206661696C65642C2046696C653A200046
:200300002569730025696D20256973002569682025696D2025697300256964202569682066
:2003200025696D202569730025697920256964202569682025696D20256973005072696E9D
:20034000742074696D653A2000000125272318FF1F211D1CFF19171B1EFFFF0C0409FFFF83
:20036000FF2E2C0CFFFF04400AFF41FFFFFFFFFFFF50726F7465637465642050696E0A0097
:20038000452569202573004D61676E6120492072656164792E00E801E301DC01D501C701DA
:2003A0006F66660044454255473A004B494C4C45442E20004D3131332053006F6B00486582
:2003C0006174696E6720646F6E652E0020573A00452569202573004D61676E6120492072FB
:2003E000656164792E0042656420646F6E652E0020573A004265642048656174696E672E63
:20040000004D61676E612049204F66662E00454D455247454E43595F504152534552004318
:200420004153455F4C494748545F4252494748544E45535300544F47474C455F4C4947486F
:20044000545300534F4654574152455F504F574552004255494C445F50455243454E5400BE
:200460004C4556454C494E475F44415441005A5F50524F4245004155544F4C4556454C00CB
:200480005052494E545F4A4F420050524F4752455353004155544F5245504F52545F544513
:2004A0004D5000564F4C554D455452494300454550524F4D0053455249414C5F584F4E5F5A
:2004C000584F4646004649524D574152455F4E414D453A4D61726C696E20312E382E302E2C
:2004E0003220284769746875622920534F555243455F434F44455F55524C3A6874747073CC
:200500003A2F2F6769746875622E636F6D2F4D61726C696E4669726D776172652F4D617235
:200520006C696E2050524F544F434F4C5F56455253494F4E3A312E30204D414348494E4583
:200540005F545950453A4D61676E6120492045585452554445525F434F554E543A31205518
:200560005549443A63656465326132662D343161322D343734382D396231322D63353563F2
:2005800036326633363766660A002F2F20007A5F6D696E3A2000795F6D696E3A2000785FD5
:2005A0006D696E3A20005265706F7274696E6720656E6473746F70207374617475730A00F8
:2005C0004D31343520533C696E6465783E206F7574206F662072616E67652028302D312996
:2005E0000A004D36303020486F74656E6420746F6F20636F6C6420746F206368616E6765CF
:200600002066696C616D656E740A0043617365206C696768743A2000290A0046697865642F
:2006200020706172616D657465722062797465733B2063726320004669786564207061728C
:20064000616D6574657220280048565F7365745F6F6B0A00416374697665204578747275B4
:200660006465723A2000556E6B6E6F776E20636F6D6D616E643A2022004C696E65204E750F
:200680006D626572206973206E6F74204C617374204C696E65204E756D6265722B312C20BA
:2006A0004C617374204C696E653A20004B494C4C45442E200053544F505045442E200050E4
:2006C00072696E7465722073746F707065642064756520746F206572726F72732E2046694C
:2006E0007820746865206572726F7220616E6420757365204D39393920746F20726573741E
:200700006172742E202854656D70657261747572652069732072657365742E2053657420B5
:2007200069742061667465722072657374617274696E67290A004E6F20436865636B737571
:200740006D2077697468206C696E65206E756D6265722C204C617374204C696E653A2000FD
:20076000636865636B73756D206D69736D617463682C204C617374204C696E653A20004D81
:20078000313130004D3331004732382058590053442072656164206572726F720A00446F3A
:2007A0006E65207072696E74696E672066696C650A0020496E76616C6964206578747275D2
:2007C0006465722000205A3A0020593A0020436F756E7420583A0020453A00205A3A002009
:2007E000593A00583A003A004361703A0053657474696E672054726176656C204163636554
:200800006C65726174696F6E3A200053657474696E67205265747261637420416363656C55
:2008200065726174696F6E3A200053657474696E67205072696E7420416363656C65726131
:2008400074696F6E3A200053657474696E67205072696E7420616E642054726176656C2078
:20086000416363656C65726174696F6E3A2000205A00205900580020204D61783A20002029
:200880005A00205900580020204D696E3A20004F6E20004F666600536F667420656E647311
:2008A000746F70733A200020643A0020693A0020703A00200D466978656420706172616D7F
:2008C00065746572206E62797465733B20637263206572726F722000200D0A46697865648F
:2008E00020706172616D657465722062797465733B20637263206572726F722000290A00A0
:200900002062797465733B206372632000466978656420706172616D6574657220280020A4
:2009200068617264776172652076657273696F6E3A004B494C4C45442E2000202D20496EE2
:2009400076616C6964206578747275646572206E756D62657220210A002D2D2D2D2D2D2DC5
:20096000007C48454C4C424F547C002D2D2D2D2D2D2D00687474703A2F2F68656C6C626F6C
:20098000742E78797A00687474703A2F2F68656C6C626F742E78797A0020312E382E302E2C
:2009A00032002020506C616E6E657242756666657242797465733A20002046726565204D2B
:2009C000656D6F72793A2000436F6D70696C65643A204F637420313520323031390A002048
:2009E0007C20417574686F723A2028466163756E646F204F6C6D65646F2C206465666175D5
:200A00006C7420636F6E666967290A00323031372D31322D32352031323A303000204C6155
:200A2000737420557064617465643A2000312E382E302E320A004D61726C696E0020536FEA
:200A40006674776172652052657365740A00205761746368646F672052657365740A002042
:200A600042726F776E206F75742052657365740A002045787465726E616C20526573657443
:200A80000A00506F77657255700A0073746172740A006572726F722077726974696E6720CA
:200AA000746F2066696C650A00456E6473746F707320256320256320256320256300205A1F
:200AC0003A0020593A0020583A00656E6473746F7073206869743A200047323820580066B9
:200AE000696C616D656E74206F75740A004D33322053256C7520212573004D33322053253C
:200B00006C7520212F25732F2573004730204631303030205A25752E257500473238205981
:200B2000004732382058004D313036202053323535004D31303920543020532575004D3163
:200B400039302053257500446F6E6520736176696E672066696C652E0A004D3239007C3C89
:200B60003E5E2B3D3F2F5B5D3B2C2A225C004572726F722077726974696E6720746F2045A6
:200B80004550524F4D210A004D363030204230004368616E67652066696C616D656E74007C
:200BA0004261627973746570205A00466C6F7700466C6F770046616E2073706565640046C5
:200BC000616E2073706565640042656400426564004E6F7A7A6C65004E6F7A7A6C650053A8
:200BE00070656564005370656564004D61696E005072656865617420504C4120456E6400E4
:200C00005072656865617420504C4120426564005072656865617420504C41005072657086
:200C200061726500507265686561742041425320456E6400507265686561742041425320A7
:200C40004265640050726568656174204142530050726570617265004261636B004E65785F
:200C60007420636F726E6572005072656865617420504C4100436F6F6C646F776E0050728A
:200C8000656865617420414253004368616E67652066696C616D656E740044697361626C52
:200CA00065207374657070657273004D3834004C6576656C20636F726E6572730041757442
:200CC0006F20686F6D6500473238004D6F76652061786973004D61696E00290A002062790C
:200CE0007465733B20637263200053657474696E67732053746F726564202800290A5772CF
:200D00006974652066696C65206E616D653A20002062797465733B206372632000506F7786
:200D200065726F66662053746F72656420280020213D2000637263206572726F723A20004E
:200D40000A726561642066696C65206E616D653A2000290A726561642066696C6520646996
:200D6000723A20002062797465733B206372632000706F7765726F66662073746F72656494
:200D80002073657474696E677320726574726965766564202800202863616C63756C6174FF
:200DA000656429210A0020213D2000454550524F4D20435243206D69736D61746368202DF5
:200DC000202873746F726564292000290A002062797465733B2063726320002073746F72DC
:200DE00065642073657474696E677320726574726965766564202800204D61726C696E3DA7
:200E0000563131290A0028454550524F4D3D00454550524F4D2076657273696F6E206D69D6
:200E2000736D6174636820004D31303420532575004739322045257500473932205A2575AC
:200E40002E2575004D3530300043616E63656C207072696E7400526573756D652070726979
:200E60006E7400506F776572206F75746167650025753A2530327500253032753A25303251
:200E800075002D2D2D005344005A00590058005072696E742070617573656400002573006D
:200EA0005072696E742061626F72746564004E6F2053442063617264005072696E74206663
:200EC000726F6D2053440053746F70207072696E7400526573756D65207072696E7400411B
:200EE000626F7574205072696E746572005061757365207072696E7400436F6E74726F6C08
:200F000000507265706172650054756E6500496E666F2073637265656E00426162797374D5
:200F20006570205A004578747275646572733A203100687474703A2F2F68656C6C626F74CF
:200F40002E78797A004D61676E61204900323031372D31322D32352031323A303000312E41
:200F6000382E302E32004D61726C696E00546865726D6973746F727300426F617264204923
:200F80006E666F005072696E74657220496E666F004D61696E0020204E6F7A7A6C653A20DD
:200FA000004261636B004D696E696D756D2054656D70206973203137302E00486561746961
:200FC0006E67206661696C65640045787472756465206D6F726500526573756D6520707290
:200FE000696E7400524553554D45204F5054494F4E533A0020204E6F7A7A6C653A200063D0
:2010000068616E6765006F66207468652066696C616D656E74005761697420666F72207398
:2010200074617274005052494E54205041555345440020204E6F7A7A6C653A200066696C2F
:20104000616D656E7420756E6C6F6164005761697420666F72005052494E542050415553F6
:2010600045440020204E6F7A7A6C653A2000506C6561736520776169742E2E2E0048656104
:2010800074696E67206E6F7A7A6C65005052494E54205041555345440020204E6F7A7A6C10
:2010A000653A200068656174206E6F7A7A6C652E00507265737320627574746F6E20746F13
:2010C000005052494E54205041555345440020204E6F7A7A6C653A2000746F20636F6E74CE
:2010E000696E75652E2E2E00616E6420707265737320627574746F6E00496E7365727420E4
:2011000066696C616D656E74005052494E54205041555345440020204E6F7A7A6C653A20F4
:201120000066696C616D656E74206C6F6164005761697420666F72005052494E5420504165
:20114000555345440020204E6F7A7A6C653A200066696C616D656E742065787472756465D1
:20116000005761697420666F72005052494E542050415553454400746F20726573756D6570
:20118000005761697420666F72207072696E74005052494E542050415553454400496E6977
:2011A0007469616C697A6520454550524F4D00436F6E74726F6C00526573746F726520660A
:2011C00061696C73616665004C6F61642073657474696E677300496E697469616C697A6517
:2011E00020454550524F4D0053746F72652073657474696E67730046696C616D656E740039
:201200004D6F74696F6E0054656D7065726174757265004D61696E004D333033205531209C
:201220004525692053256900507265686561742041425320636F6E6600507265686561748C
:2012400020504C4120636F6E6600504944204175746F74756E6500504944204175746F746F
:20126000756E65005049442D44005049442D44005049442D49005049442D49005049442DDA
:2012800050005049442D5000200220466163740020022046616374002002204D617800209C
:2012A00002204D6178002002204D6178002002204D696E002002204D696E002002204D69BA
:2012C0006E004F6666004F6E20004175746F74656D700046616E2073706565640046616EFE
:2012E0002073706565640042656400426564004E6F7A7A6C65004E6F7A7A6C6500436F6E83
:2013000074726F6C0053746F72652073657474696E67730042656400426564004E6F7A7AA7
:201320006C65004E6F7A7A6C650046616E2073706565640046616E20737065656400546515
:201340006D70657261747572650043616E6E6F74206F70656E207375626469722000656EE7
:201360007175657565696E672022006563686F3A004573746570732F6D6D00457374657071
:20138000732F6D6D005A73746570732F6D6D005A73746570732F6D6D005973746570732FF6
:2013A0006D6D005973746570732F6D6D005873746570732F6D6D005873746570732F6D6DA2
:2013C000004D6F74696F6E0053746570732F6D6D004A65726B00416363656C657261746906
:2013E0006F6E0056656C6F6369747900436F6E74726F6C004F6666004F6E200052756E6F44
:2014000075742073656E736F72730046696C2E204469612E0046696C2E204469612E004F1D
:201420006666004F6E20004520696E206D6D3300436F6E74726F6C0043616E6E6F742065D1
:201440006E746572207375626469723A2000052E2E004D61696E004D61782054656D703AD4
:2014600020313530004D696E2054656D703A203500544265643A4550434F53203130304B3E
:20148000004D61782054656D703A20323735004D696E2054656D703A20350054303A2045EC
:2014A00050434F53203130304B005053553A2047656E657269630050726F746F636F6C3A60
:2014C00020312E3000202020204857205665723A2056004657205665723A2056312E310017
:2014E000426175643A20323530303030004754323536302056332E3000534420636172642F
:20150000206F6B0A006F70656E526F6F74206661696C65640A00766F6C756D652E696E69DC
:2015200074206661696C65640A00534420696E6974206661696C0A006175746F25692E679B
:20154000004D3234004D32332025730057726974696E6720746F2066696C653A20006F708E
:20156000656E206661696C65642C2046696C653A20006F70656E206661696C65642C204624
:20158000696C653A200046696C652073656C65637465640A002053697A653A200046696C94
:2015A00065206F70656E65643A20006F70656E206661696C65642C2046696C653A20002054
:2015C00066696C653A2000646F696E67006672657368004E6F772000454E44205355425261
:2015E0004F5554494E450A002220706F73002220706172656E743A2200535542524F55541D
:20160000494E452043414C4C207461726765743A22004B494C4C45442E2000747279696E76
:201620006720746F2063616C6C207375622D67636F64652066696C65732077697468207448
:201640006F6F206D616E79206C6576656C732E204D4158206C6576656C2069733A004572D3
:20166000726F723A00436172642072656D6F766564004361726420696E7365727465640059
:2016800024F4D43050C38E20C2A24017828B7011127A910D816CD90AA861E108C7586607AC
:2016A000615143061E4B5D05C145A7041A411104093D9803713931034036DB026533910206
:2016C000D4305402802E1D02632CEE01752AC501B028A001102781018F2564012B244B011A
:2016E000E0223401AC211F018D200D01801FFC00841EED00971DDF00B81CD200E61BC600E1
:20170000201BBC00641AB200B219A8000A19A0006A189900D117910040178B00B5168400A7
:2017200031167E00B31579003A157300C7146F0058146A00EE1366008813630025135E00C6
:20174000C7125B006C12570015125400C111510070114F0021114B00D61049008D10470082
:201760004610440002104200C00F4000800F3E00420F3C00060F3B00CB0E3800930E3700D9
:201780005C0E3500270E3400F30D3200C10D3100900D3000600D2E00320D2D00050D2C00FE
:2017A000D90C2B00AE0C2900850C29005C0C2700350C27000E0C2600E80B2400C40B24003B
:2017C000A00B23007D0B23005A0B2100390B2100180B2000F80A1F00D90A1E00BB0A1E005D
:2017E0009D0A1D00800A1D00630A1C00470A1B002C0A1B00110A1A00F7091A00DD091900EA
:20180000C4091900AB091900920917007B091800630917004C091600360916002009160045
:201820000A091500F5081500E0081400CC081400B8081400A4081400900813007D081200B4
:201840006B081300580812004608120034081100230811001208110001081100F00710005B
:20186000E0071000D0071000C0071000B0070F00A107100091070E0083070F0074070F006C
:2018800065070E0057070E0049070E003B070D002E070E0020070D0013070D0006070D00FD
:2018A000F9060C00ED060D00E0060C00D4060C00C8060C00BC060C00B0060C00A4060B0026
:2018C00099060C008D060B0082060B0077060B006C060B0061060A0057060B004C060A00F2
:2018E00042060A0038060A002E060A0024060A001A060A001006090007060A00FD05090071
:20190000F4050900EB050900E2050900D9050900D0050900C7050900BE050900B5050800B4
:20192000AD050800A50509009C050800940508008C050800840508007C05080074050800BC
:201940006C050700650508005D050700560508004E05070047050700400508003805070093
:20196000310507002A050700230507001C050600160507000F050700080506000205070040
:20198000FB040600F5040700EE040600E8040600E2040700DB040600D5040600CF040600CE
:2019A000C9040600C3040600BD040600B7040600B1040500AC040600A6040600A004050036
:2019C0009B04060095040500900406008A04050085040500800406007A040500750405007E
:2019E000700405006B04050066040500610405005C04050057040500520405004D040500AB
:201A000048040500430405003E0404003A04050035040500300404002C04050027040400C6
:201A2000230405001E0404001A04040016040500110404000D0404000904050004040400C7
:201A400000040400FC030400F8030400F4030400F0030400EC030400E8030400E4030400BD
:201A6000E0030400DC030400D8030400D4030400D0030400CC030400C8030300C50303009F
:201A800024F404D9201BC40C5C0E9804C4095F0265077101F405F900FB04B30048048700BD
:201AA000C10369005803550003034500BE023A008402310053022A00290225000402200058
:201AC000E4011C00C8011900AF0117009801140084011300710110006101100051010E00C3
:201AE00043010D0036010B002B010B0020010B00150109000C01090003010800FB000800AC
:201B0000F3000800EB000700E4000600DE000600D8000600D2000600CC000500C7000500B7
:201B2000C2000500BD000400B9000400B5000400B1000400AD000400A9000400A5000300EC
:201B4000A20003009F0004009B000300980003009500020093000300900003008D000200B5
:201B60008B000300880002008600020084000300810002007F0002007D0002007B0002003E
:201B80007900020077000100760002007400020072000100710002006F0002006D0001009F
:201BA0006C0002006A000100690002006700010066000100650001006400020062000100E3
:201BC00061000100600001005F0002005D0001005C0001005B0001005A0001005900010015
:201BE000580001005700010056000100550001005400010053000000530001005200010038
:201C000051000100500001004F0001004E0000004E0001004D0001004C0001004B0000004E
:201C20004B0001004A0001004900010048000000480001004700010046000000460001005D
:201C4000450000004500010044000100430000004300010042000000420001004100000067
:201C600041000100400001003F0000003F0001003E0000003E0001003D0000003D0001006A
:201C80003C0000003C0000003C0001003B0000003B0001003A0000003A000100390000006A
:201CA000390001003800000038000000380001003700000037000100360000003600000066
:201CC00036000100350000003500000035000100340000003400000034000100330000005D
:201CE000330000003300010032000000320000003200010031000000310000003100010052
:201D00003000000030000000300001002F0000002F0000002F0000002F0001002E00000047
:201D20002E0000002E0001002D0000002D0000002D0000002D0001002C0000002C00000039
:201D40002C0000002C0001002B0000002B0000002B0000002B0001002A0000002A00000029
:201D60002A0000002A00010029000000290000002900000029000000290001002800000018
:201D8000280000002800000028000000280001002700000027000000270000002700000006
:201DA0002700010026000000260000002600000026000000260001002500000025000000F2
:201DC0002500000025000000250000002500010024000000240000002400000024000000DE
:201DE0002400010023000000230000002300000023000000230000002300000023000100C8
:201E00002200000022000000220000002200000022000000220001002100000021000000B3
:201E200021000000210000002100000021000000210001002000000020000000200000009C
:201E400020000000200000002000000020000000200001001F0000001F0000001F00000084
:201E60001F0000001F0000001F0000001F0001001E0000001E0000001E0000001E0000006D
:201E80004D383420582059205A2045005A25752C45256C752C50256C752C5425752C42251F
:201EA000752C004D61676E6120492072656164792E004572723A4E6F2046696C616D656ED5
:201EC000740048617264636F6465642044656661756C742053657474696E6773204C6F617E
:201EE0006465640A00E8030000E803000032000000E80300000000C8430000C8430000C8DA
:201F000043000034429A99A0429A99A1420000C8430000BA4220440020490020204D333019
:201F20003420500020440020490020204D3330312050005049442073657474696E67733AF7
:201F40000A0020460020420020480020204D3134352053004D6174657269616C2068656130
:201F600074757020706172616D65746572733A0A00204500205A002059002058002042003E
:201F800020540020204D323035205300416476616E6365643A20533C6D696E5F6665656400
:201FA000726174653E20543C6D696E5F74726176656C5F66656564726174653E20423C6D6E
:201FC000696E5F7365676D656E745F74696D655F75733E20583C6D61785F78795F6A65725B
:201FE0006B3E205A3C6D61785F7A5F6A65726B3E20453C6D61785F655F6A65726B3E0A001C
:2020000020540020520020204D323034205000416363656C65726174696F6E2028756E69E9
:2020200074732F7332293A20503C7072696E745F616363656C3E20523C7265747261637471
:202040005F616363656C3E20543C74726176656C5F616363656C3E0A00204500205A00200F
:20206000590020204D3230312058004D6178696D756D20416363656C65726174696F6E2087
:2020800028756E6974732F7332293A0A00204500205A0020590020204D3230332058004D65
:2020A0006178696D756D206665656472617465732028756E6974732F73293A0A00204500CD
:2020C000205A0020590020204D393220580053746570732070657220756E69743A0A0020E3
:2020E000204D3230302044300A0020204D3230302044002044697361626C65640A004669CF
:202100006C616D656E742073657474696E67733A0020204D3134392043203B20556E6974CA
:202120007320696E2043656C736975730A002020473231202020203B20556E6974732069D2
:202140006E206D6D0A0020746F6F206C6F6E6720657874727573696F6E2070726576656E0A
:202160007465640A0020636F6C6420657874727573696F6E2070726576656E7465640A004E
:20218000627573793A2070617573656420666F7220696E7075740A00627573793A207061F1
:2021A0007573656420666F7220757365720A00627573793A2070726F63657373696E670ABA
:2021C000004B494C4C45442E20004B494C4C2063617573656420627920746F6F206D756369
:2021E0006820696E6163746976652074696D65202D2063757272656E7420636F6D6D616E2A
:20220000643A2000506C65617365207265736574005052494E5445522048414C544544006D
:202220005072696E7465722068616C7465642E206B696C6C28292063616C6C6564210A002D
:20224000000070C1000070C1000000000000C8420000C8420000A041000000005761726E8F
:20226000696E673A20486F6D696E672042756D702044697669736F72203C20310A000202F5
:20228000040000A0400000A040000000400000754300006B4300008243FFFFFF70012C0174
:2022A00090012701B0012201C0011D01F00118011002130130020E0160020901900204013E
:2022C000C002FF000003FA004003F5008003F000D003EB002004E6007004E100E004DC00B8
:2022E0004005D700C005D2004006CD00D006C8008007C3003008BE00F008B900C009B4000C
:20230000B00AAF00B00BAA00D00CA500000EA000500F9B00C01096005012910000148C00CD
:20232000C0158700B0178200B0197D00D01B7800001E730040206E0090226900F02464005D
:2023400040275F0090295A00E02B5500102E500020304B0010324600E033410090353C003E
:202360001037370070383200A0392D00B03A2800A03B2300603C1E00103D1900903D1400EE
:20238000103E0F00703E0A00C03E0500003F0000403FFBFF803FF6FFC03FF1FF4572723A67
:2023A000204D494E54454D5020424544004572723A204D494E54454D50004D494E54454D91
:2023C0005020747269676765726564004572723A204D415854454D5020424544004572721D
:2023E0003A204D415854454D50004D415854454D502074726967676572656400202F0020FF
:2024000042403A0020403A00001C1F11111F00000006191803130C00040E1F041C00000040
:20242000001010101010100000141414141414000015151515151500000E1315110E0000F1
:202440001C10181705060500040A0A0A0A11110E0C12120C00000000001F1511151F000000
:2024600000000000010204040000001C1C0C040404020100000000000408100000000000E2
:2024800000002100240027002A002D003000330001010000040107010A01000022002500B5
:2024A00028002B002E003100340002010000050108010B01000020002300260029002C005A
:2024C0002F0032000001000003010601090105050505070508080808020202020A0A080819
:2024E0000404040401010101010101010303030303030303040707070C0C0C0C0C0C0C0C33
:202500000202020206060606060606060B0B0B0B0B0B0B0B01021020200808102040102028
:20252000408002010201080402010102040810204080804020100804020180040201804081
:20254000201008040201080402010102040810204080010204081020408000000A0B02090F
:202560000C0D0E08070304010000000000000000000000000000000000000000000000001D
:20258000000000000000121110000000000000000000000000000000000000000000000008
:2025A0005654726176206D696E005654726176206D696E005654726176206D696E00566D53
:2025C000696E00566D696E00566D696E00566D6178204500566D6178204500566D61782032
:2025E0004500566D6178205A00566D6178205A00566D6178205A00566D6178205900566D7C
:202600006178205900566D6178205900566D6178205800566D6178205800566D6178205817
:20262000004D6F74696F6E00416D6178204500416D6178204500416D6178205A00416D613C
:2026400078205A00416D6178205900416D6178205900416D6178205800416D61782058008A
:20266000412D74726176656C00412D74726176656C00412D7265747261637400412D7265BA
:20268000747261637400416363656C00416363656C004D6F74696F6E0056652D6A65726B62
:2026A0000056652D6A65726B0056652D6A65726B00567A2D6A65726B00567A2D6A65726BA0
:2026C0000056792D6A65726B0056792D6A65726B0056792D6A65726B0056782D6A65726B5B
:2026E0000056782D6A65726B0056782D6A65726B004D6F74696F6E0020643A0020693A0095
:2027000020703A0043290A0061626C656420286D696E2074656D702000436F6C6420657880
:202720007472756465732061726520004B64200023646566696E65202044454641554C54E8
:202740005F004B69200023646566696E65202044454641554C545F004B70200023646566E7
:20276000696E65202044454641554C545F00504944204175746F74756E652066696E6973EE
:20278000686564212050757420746865206C617374204B702C204B6920616E64204B64203C
:2027A000636F6E7374616E74732066726F6D2062656C6F7720696E746F20436F6E666967DF
:2027C00075726174696F6E2E680A00504944204175746F74756E65206661696C656421203F
:2027E00074696D656F75740A00544845524D414C2052554E4157415900546865726D616CA7
:202800002052756E617761790048656174696E67206661696C65640048656174696E67208C
:202820006661696C656400504944204175746F74756E65206661696C6564212054656D7085
:202840006572617475726520746F6F20686967680A00204B643A2000204B693A2000204B82
:20286000703A20000A20436C617373696320504944200A002054753A2000204B753A2000FE
:20288000206D61783A2000206D696E3A200020643A200020626961733A20006265640A008E
:2028A0002C2073797374656D2073746F7070656421204865617465725F49443A200048657B
:2028C0006174696E67206661696C65640048656174696E67206661696C6564004865617499
:2028E000696E67206661696C65640048656174696E67206661696C656400544845524D410F
:202900004C2052554E4157415900546865726D616C2052756E61776179004D6F7665205841
:20292000004D6F76652059004D6F7665205A004578747275646572004D6F766520302E31DD
:202940006D6D004D6F766520316D6D004D6F76652031306D6D004D6F76652061786973007D
:20296000486F74656E6420746F6F20636F6C64004578747275646572004D6F7665205A005D
:202980004D6F76652059004D6F76652058004578747275646572004D6F7665205A004D6FF8
:2029A00076652059004D6F766520580050726570617265005344207072696E74696E6720A3
:2029C0006279746520004E6F74205344207072696E74696E670A00526573656E643A2000EB
:2029E0006F6B000077E267E511241FBECFEFD1E2DEBFCDBF00E00CBF13E0A0E0B2E0E4EF29
:202A0000F8EE01E00BBF02C007900D92AA39B107D9F725E1AAE9B3E001C01D92AF38B20786
:202A2000E1F714E1C3EFD4E100E006C021970109802FFE010E94D8F3C23FD10780E0080797
:202A4000A9F70E946ADB0C9469F40C9400002F923F924F925F926F927F928F929F92AF9249
:202A6000BF92CF92DF92EF92FF920F931F93CF93DF93CDB7DEB7CE57D1090FB6F894DEBFF3
:202A80000FBECDBF81E090E09093AE138093AD13809106158D3411F40C94BD1D843511F42B
:202AA0000C94062B873411F00C94472B80910415909105158430910509F4AFC554F497FF79
:202AC00002C00C94612B20917402823091056CF527C08A35910511F40C946E1D4CF48B31D0
:202AE000910509F4E1C54C9709F46FC60C94612B8B35910509F4F6C78C35910511F00C9454
:202B0000612B0E94B0D269E7262E62E0362E78E0E72E7CE0F72E00E0D12C10E00C949C1DA7
:202B200021110C94682B0C94612B222311F40C94612B11E0029709F010E00E949C3482E542
:202B40000E940734882309F45CC10E9429336B017C014090080C5090090C60900A0C70900D
:202B60000B0C80910C0C90910D0CA0910E0CB0910F0C2B968CAF9DAFAEAFBFAF2B972091AE
:202B8000BF133091C0134091C1135091C2132F962CAF3DAF4EAF5FAF2F978091C31390910F
:202BA000C413A091C513B091C6136B968CAF9DAFAEAFBFAF6B9720E030E0A901C701B6018D
:202BC0000E94BAEC882309F40EC5A30192012F966CAD7DAD8EAD9FAD2F970E94BAEC8111CC
:202BE00011C02B962CAD3DAD4EAD5FAD2B976B966CAD7DAD8EAD9FAD6B970E94BAEC8823F7
:202C000009F4F1C420E030E0A901C701B6010E94BAEC881F8827881F18130BC020E030E07E
:202C200040E85FE3A3962CAF3DAF4EAF5FAFA3970AC080E090E0A0E8BFEBA3968CAF9DAF59
:202C4000AEAFBFAFA397A30192012F966CAD7DAD8EAD9FAD2F970E94D0F067966CAF7DAF3D
:202C60008EAF9FAF67972B962CAD3DAD4EAD5FAD2B976B966CAD7DAD8EAD9FAD6B970E940F
:202C8000D0F06F966CAF7DAF8EAF9FAF6F9767962CAD3DAD4EAD5FAD6797CA01B9010E94AB
:202CA0001FED4B015C016F962CAD3DAD4EAD5FAD6F97CA01B9010E941FED9B01AC01C50148
:202CC000B4010E94D1F00E943CF363966CAF7DAF8EAF9FAF639720E030E040E05FE30E9432
:202CE0001FED4B015C01A7019601C701B6010E941FED6B017C01A5019401C501B4010E9472
:202D00001FED9B01AC01C701B6010E94D0F00E943CF39B01AC01A3966CAD7DAD8EAD9FAD60
:202D2000A3970E941FED4B015C012F962CAD3DAD4EAD5FAD2F97C301B2010E94D1F020E0D3
:202D400030E040E05FE30E941FED6B017C016F966CAD7DAD8EAD9FAD6F97905863962CADDB
:202D60003DAD4EAD5FAD63970E94ADF19B01AC01C501B4010E941FED9B01AC01C701B601EE
:202D80000E94D1F0A30192010E94D0F06B017C016B962CAD3DAD4EAD5FAD6B972B966CADA7
:202DA0007DAD8EAD9FAD2B970E94D1F020E030E040E05FE30E941FED2B013C0163962CADE2
:202DC0003DAD4EAD5FAD639767966CAD7DAD8EAD9FAD67970E94ADF19B01AC01C501B4013F
:202DE0000E941FED9B01AC01C301B2010E94D1F02B962CAD3DAD4EAD5FAD2B970E94D0F053
:202E000014C089E40E940734882329F00E9429336B017C0103C0C12CD12C76018AE40E94B5
:202E200007348823F9F00E9429336B966CAF7DAF8EAF9FAF6B9720E030E0A901C701B601B7
:202E40000E94BAEC81111EC020E030E0A9016B966CAD7DAD8EAD9FAD6B970E94BAEC811159
:202E600011C0C1C320E030E0A901C701B6010E94BAEC882309F4B7C36B961CAE1DAE1EAEF8
:202E80001FAE6B97A701960150582B962CAF3DAF4EAF5FAF2B976B968CAD9DADAEADBFADDC
:202EA0006B97B0582F968CAF9DAFAEAFBFAF2F97CA01B9010E941FED4B015C012F962CADB1
:202EC0003DAD4EAD5FAD2F97CA01B9010E941FED9B01AC01C501B4010E94D1F00E943CF310
:202EE000E3966CAF7DAF8EAF9FAFE3972091080C3091090C40910A0C50910B0C63962CAFBF
:202F00003DAF4EAF5FAF6397A701960163966CAD7DAD8EAD9FAD63970E94D1F0A3966CAF0D
:202F20007DAF8EAF9FAFA39780910C0C90910D0CA0910E0CB0910F0C6F968CAF9DAFAEAFAD
:202F4000BFAF6F976B962CAD3DAD4EAD5FAD6B97BC01CD010E94D1F0A7966CAF7DAF8EAF81
:202F60009FAFA7972091BF133091C0134091C1135091C213AB962CAF3DAF4EAF5FAFAB97FE
:202F8000A3962CAD3DAD4EAD5FADA397AB966CAD7DAD8EAD9FADAB970E94D0F06B017C015C
:202FA0008091C3139091C413A091C513B091C613AF968CAF9DAFAEAFBFAFAF97A7962CAD1C
:202FC0003DAD4EAD5FADA797BC01CD010E94D0F04B015C012091100C3091110C4091120C92
:202FE0005091130CEB962CAF3DAF4EAF5FAFEB976091C7137091C8138091C9139091CA136A
:203000000E94D0F067966CAF7DAF8EAF9FAF67978091CB139091CC13A091CD13B091CE135F
:20302000E7968CAF9DAFAEAFBFAFE7972091140C3091150C4091160C5091170CEF962CAF39
:203040003DAF4EAF5FAFEF97A70196012B966CAD7DAD8EAD9FAD2B970E941FED2B013C0150
:20306000A50194012F966CAD7DAD8EAD9FAD2F970E941FED9B01AC01C301B2010E94D1F0EF
:203080002B013C01A50194012B966CAD7DAD8EAD9FAD2B970E941FED4B015C01A7019601A9
:2030A0002F966CAD7DAD8EAD9FAD2F970E941FED9B01AC01C501B4010E94D0F0A3019201B0
:2030C0000E9444F16B017C0120E030E0A9010E94BAEC87FF0AC02BED3FE049EC50E4C70176
:2030E000B6010E94D1F06B017C01112351F02BED3FE049EC50E4C701B6010E94D0F06B016B
:203100007C0120E030E0A901C701B6010E94BAEC811128C0AB962CAD3DAD4EAD5FADAB97EA
:2031200063966CAD7DAD8EAD9FAD63970E94BAEC811118C0AF962CAD3DAD4EAD5FADAF97CB
:203140006F966CAD7DAD8EAD9FAD6F970E94BAEC811108C0BBEDCB2EBFE0DB2EB9ECEB2EF1
:20316000B0E4FB2EE3962CAD3DAD4EAD5FADE397C701B6010E941FED9B01AC010E941FEDB1
:203180004B015C0167962CAD3DAD4EAD5FAD6797CA01B9010E941FED9B01AC01C501B401CA
:2031A0000E94D1F00E943CF34B015C012FE632E143E85AE30E94BAEC87FD11C2C501B40188
:2031C0000E9446F20E941AF21B01672B19F422242394312CB10180E090E00E94BEEC4B0138
:2031E0005C019B01AC01C701B6010E94ADF163966CAF7DAF8EAF9FAF6397A501940167966D
:203200006CAD7DAD8EAD9FAD67970E94ADF1E3966CAF7DAF8EAF9FAFE397EF962CAD3DAD99
:203220004EAD5FADEF97E7966CAD7DAD8EAD9FADE7970E94D0F0A50194010E94ADF1E796E2
:203240006CAF7DAF8EAF9FAFE79763962CAD3DAD4EAD5FAD6397CA01B9010E941FED20E02E
:2032600030E040E05FE30E941FED9B01AC0160E070E080E89FE30E94D0F0AB966CAF7DAF81
:203280008EAF9FAFAB97EB968CAD9DADAEADBFADEB9789879A87AB87BC87EF962CAD3DAD26
:2032A0004EAD5FADEF972D873E874F87588B6091140270911502072E000C880B990B0E9416
:2032C000C0EC209100023091010240910202509103020E941FED2AE037ED43E25CE30E942E
:2032E0001FED68A379A38AA39BA30E940ABB9B01AC0128533F4F4F4F5F4FAF962CAF3DAF1F
:203300004EAF5FAFAF9728964FAC289729965FAC29972A966FAC2A972B967FAC2B9741E0EF
:2033200050E06D965FAF4EAF6D9759E164965FAF64976D96AEADBFAD6D97A215B30509F4D4
:203340003DC10E9424D10E940ABBDC01CB01AF962CAD3DAD4EAD5FADAF97821B930BA40B89
:20336000B50BB7FD11C00E940ABB9B01AC0128533F4F4F4F5F4FAF962CAF3DAF4EAF5FAFEC
:20338000AF9780E00E94BFB164963FAD6497315064963FAF6497332309F44BC0AB962CADB8
:2033A0003DAD4EAD5FADAB972F966CAD7DAD8EAD9FAD2F970E941FED6B017C0163962CAD1C
:2033C0003DAD4EAD5FAD6397B201C3010E941FEDA70196010E94D1F07B018C01AB962CAD18
:2033E0003DAD4EAD5FADAB97B201C3010E941FED4B015C0163962CAD3DAD4EAD5FAD63970F
:203400002F966CAD7DAD8EAD9FAD2F970E941FED9B01AC01C501B4010E94D0F02B013C011A
:20342000C701D8012F968CAF9DAFAEAFBFAF2F9761C06D964EAD5FAD6D97BA0180E090E054
:203440000E94BEEC63962CAD3DAD4EAD5FAD63970E941FED4B015C010E94AAF16B017C01E6
:20346000C501B4010E9432F34B015C01A70196012B966CAD7DAD8EAD9FAD2B970E941FED27
:203480002B013C01A50194016B966CAD7DAD8EAD9FAD6B970E941FED9B01AC01C301B2014D
:2034A0000E94D1F02B013C01A50194012B966CAD7DAD8EAD9FAD2B970E941FED4B015C0161
:2034C000A70196016B966CAD7DAD8EAD9FAD6B970E941FED9B01AC01C501B4010E94D0F00C
:2034E0002F966CAF7DAF8EAF9FAF2F9759E164965FAF64979201A301A3966CAD7DAD8EAD44
:203500009FADA3970E94D1F069837A838B839C832F962CAD3DAD4EAD5FAD2F97A7966CAD01
:203520007DAD8EAD9FADA7970E94D1F06D837E838F839887E3962CAD3DAD4EAD5FADE3975A
:2035400069857A858B859C850E94D1F069877A878B879C87E7962CAD3DAD4EAD5FADE797FF
:203560006D857E858F8598890E94D1F06D877E878F87988B80917502882321F0CE010196E2
:203580000E9403B0E09056088E01005E1F4F9E01235F3F4FAE01475F5F4FBE016B5F7F4FA4
:2035A000CE0101960E9474AC6D968EAD9FAD6D9701966D969FAF8EAF6D97BBCEE0905608D5
:2035C0008E01005E1F4F2BEC33E147EC53E163EC73E18FEB93E10E9474AC0E9424350E940E
:2035E0002E350C94612BEEE5F6E184918F010F5F1F4F882321F00E943935F801F6CFE7E2BE
:20360000F2E084918F010F5F1F4F882311F40C94612B0E943935F801F4CF80E50E9407346D
:20362000882329F00E94E9326B017C0103C0C12CD12C760183E50E940734882361F00E9419
:20364000293320E030E04AE754E40E941FED0E941AF26B017C010E94B0D280912502811162
:2036600005C060E08DE392E00E94C38A0E942E358091B7139091B813A091B913B091BA139D
:20368000C80ED91EEA1EFB1E0E940ABBDC01CB018C199D09AE09BF09B7FD02C00C94612BC0
:2036A00080E00E94BFB1F0CF0091530481E00827F0905404F826109155041827011102C05E
:2036C000FF2019F0EBE6F3E104C01111FBCF0C941C2C84916F01BFEFCB1ADB0A882321F0CC
:2036E0000E943935F601F5CFE6E6F2E084916F012FEFC21AD20A882321F00E943935F60143
:20370000F5CF002369F0E4E6F2E084916F013FEFC31AD30A882321F00E943935F601F5CFD9
:20372000FF2069F0E2E6F2E084916F014FEFC41AD40A882321F00E943935F601F5CF11114F
:2037400003C0E8E5F2E00DC0E0E6F2E084916F015FEFC51AD50A8823A1F30E943935F601CB
:20376000F5CF84916F019FEFC91AD90A882321F00E943935F601F5CF111103C04EE353E0DC
:2037800002C04BEE52E0F11003C02EE333E002C02DEE32E0011103C08EE393E002C08FEE2D
:2037A00092E05F934F933F932F939F938F9386E492E09F938F931F920E94C5840FB6F894BE
:2037C000DEBF0FBECDBF0C94612B0E94B0D28091000290910102A0910202B09103028093DE
:2037E000A1039093A203A093A303B093A40380911402909115029093A00380939F0384E656
:2038000090E090931502809314020E942E3581E08093060988E50E945C33382E89E50E9439
:203820005C33082F8AE50E945C33282E311005C0011105C011E0182705C0011102C010E036
:2038400001C0182F0E941A35111105C0311003C0002309F416C180E090E0A0E8B0E480938E
:20386000C7139093C813A093C913B093CA139C01AD016091100C7091110C8091120C90917B
:20388000130C0E94BAEC87FF0BC019821A821B821C82BE016F5F7F4F87EC93E10E94C73122
:2038A00011110EC0311003C00111E5C0EAC0011107C080E090E00E9472B01123A9F3DBC0DB
:2038C00010920C0C10920D0C10920E0C10920F0C1092080C1092090C10920A0C10920B0C1C
:2038E0000E946C32E9E9F2E2B4912C96BFAF2C97EDE8F2E2C590D590E590F490E1E9F2E2B0
:2039000085909590A590B490A5019401C701B6010E94F7F218162CF4A7019601C501B401A7
:2039200004C0A5019401C701B6010E94ADF12B966CAF7DAF8EAF9FAF2B97ECE46E2EE2E244
:203940007E2EF3016591759185919491F0E54F2EF2E25F2EF20125913591459154910E9411
:20396000BAEC87FF02C0F30101C0F20145905590659074902B962CAD3DAD4EAD5FAD2B97B1
:20398000CA01B9010E941FED20E030E040E85FE30E94D1F00E943CF39B01AC01C301B20186
:2039A0000E941FED6BAF7CAF8DAF9EAFEAE9F2E2249128962FAF289720E030E040EC5FE356
:2039C000C501B4010E941FED2B013C0128963FAD2897632F330F770B880B990B0E94C0EC11
:2039E0009B01AC01C301B2010E941FED69837A838B839C8320E030E040EC5FE3C701B60146
:203A00000E941FED6B017C012C964FAD2C97642F440F770B880B990B0E94C0EC9B01AC0158
:203A2000C701B6010E941FED68A379A38AA39BA39E01255C3F4F40E15CE0BE016F5F7F4F61
:203A4000CE0180960E94E3301092520410920C0C10920D0C10920E0C10920F0C1092080C30
:203A60001092090C10920A0C10920B0C111121CF31101FCF19CF81E090E00E9472B011113E
:203A800002C0222021F082E090E00E9472B00E946C3280910509809306098091A103909124
:203AA000A203A091A303B091A4038093000290930102A0930202B093030280919F03909114
:203AC000A00390931502809314020E942E3583E0809376020E94F33A0C94612B10929E03AF
:203AE0000C94612B81E080939E030C94612B0E9429332B013C01F701208131814281538110
:203B00000E94D0F04B015C012DEB37E346E855EB0E94F7F287FD18C02DEB37E346E855E37B
:203B2000C501B4010E94BAEC181674F01F5FB4E0EB0EF11C1430A9F0D1018D911D010E948B
:203B40000734882399F3D3CF133019F0DD24D39401C001E0D7014D925D926D927C9213979E
:203B6000E5CFDD2019F00E946C3203C001110E941D850E94F33A0C94612B809104159091EC
:203B800005158337910509F4E5C70CF0C3C08C34910509F418C50CF06AC08831910509F4F1
:203BA000AAC2ACF58231910509F4FEC6BCF497FF02C00C94612B823091050CF4AAC141972F
:203BC00011F00C94612B60E08DE992E00E94C38A4298179815982E980C94612B853191052D
:203BE00009F46EC23CF4449711F00C94612BE5EBF2E023C28631910509F466C2479711F088
:203C00000C94612BE0910215F091031567C28E31910509F48EC2C4F48A31910509F477C24D
:203C20000CF46FC28B31910509F47FC24C9711F00C94612B40E060E08091021590910315F2
:203C40000E94BF7F0C94612B8032910509F48BC30CF4D3C38A32910509F475C48B34910552
:203C600011F00C94612B0E94DD840C94612B8936910509F4D0C524F58335910509F490C647
:203C80007CF48135910509F46EC60CF086C68D34910511F00C94612B0E9485750C94612BA3
:203CA0008535910509F4B5C60CF47EC68C35910509F4C8C68836910509F489C40C94612B4C
:203CC0008E36910509F4DAC484F48B36910509F43AC60CF415C68C36910509F452C58D3619
:203CE000910509F4DAC50C94612B8037910509F44BC50CF4D6C48137910509F449C5823760
:203D0000910511F00C94612B0E94B0D20E94F33A0C94612B8232E1E09E0711F40C949A2741
:203D20000CF077C08E3B910509F4D1C5A4F58837910511F40C94A026A4F48637910509F41D
:203D40005CC70CF099C78537910511F00C94612B60E080910215909103150E94E58A0C9413
:203D6000612B8C38910509F43CC55CF48937910511F00C94612B10920609109205090C948B
:203D8000612B8139910509F4E1C78B39910509F45FC50C94612B8D3C910511F40C94872749
:203DA000DCF4893C910511F40C9463273CF4883C910511F40C941D270C94612B8B3C9105AD
:203DC00011F40C9484278C3C910511F00C94612B0E9444360C94612B8C3D910511F40C94BC
:203DE0008A274CF4833D910511F00C94612B0E94D1350C94612B8D3D910511F40C949727B8
:203E0000823E910511F00C94612B0E9444340C94612B893921E0920711F40C94B127CCF53F
:203E20008F3241E0940711F40C94AB2794F48D32A1E09A0711F40C94A52714F00C94A82741
:203E40008C32914011F00C94612B0E9413340C94612B8336F1E09F0711F40C94482A4CF40A
:203E60008033914011F00C94612B0E9423CB0C94612B803941E0940711F40C94AE27883925
:203E8000914011F00C94612B81E08093EC0B0C94612B873FA1E09A0711F40C94BA27FCF42F
:203EA000843FE1E09E0711F40C94B4274CF48A39914011F00C94612B0E9446C50C94612B7F
:203EC000853F31E0930711F40C94B727863F914011F00C94612B0E94859D0C94612B803A83
:203EE00053E0950709F47CC23CF48835924011F40C94C6270C94612B873EE3E09E0711F409
:203F00000C94872A893D974011F40C949C2A0C94612BA0900215B090031580E50E9407343B
:203F2000882359F00E94E9326B017C0111E0672B682B692B31F410E004C010E0C12CD12C8A
:203F4000760183E50E9407348823F1F00E94293320E030E04AE754E40E941FED0E941AF246
:203F60006B017C01111112C0672B682B692B71F4A114B10459F0D5018C91882339F061E08B
:203F8000C5010E94E58A0FC0112391F360E08AE892E00E94C38A1092750E1092760E1092C3
:203FA000770E1092780E83E090E09093AE138093AD1381E08093740E0E94B0D20E942E35AB
:203FC000C114D104E104F104F1F08091B7139091B813A091B913B091BA13C80ED91EEA1ED5
:203FE000FB1E0E940ABBDC01CB018C199D09AE09BF09B7FF1EC08091740E8823D1F080E0DB
:204000000E94BFB1EECF8091740E882321F080E00E94BFB1F8CF809125099091260960E07A
:20402000029719F48BE792E002C08CE692E00E94C38A1092740E0C94612B84918F010F5FFE
:204040001F4F882321F00E943935F801F6CF1092E50B1092E40B40E050E0BA018EE699E04D
:204060000E94E03E8BE1EEE6F9E0DE01159601900D928A95E1F780916C0990916D099C837A
:204080008B8387EC92E09A83898340E050E0BE016F5F7F4F8EE393E00E94A771CE01019655
:2040A0000E9460B1E6EAF2E084918F010F5F1F4F882311F40C94612B0E943935F801F4CF82
:2040C0000E9409830C94612B10923509109236090C94612B803209F41082319680818111FE
:2040E000F9CF40E061E080910215909103150E94BF7F0C94612B0E94A5760E94DD840C94CA
:20410000612B109235090E9470D70C94612B80913609882311F40C94612B83E50E940734AD
:2041200081110C94402C0C94612B0E948AD70C94612B80913609882311F40C94612B82E3F5
:204140009BE00E949F3E82E39BE00E949EAD1092340910923309E0900215F09003158091AB
:204160003609882311F40C94612B0E947A751D8218861C821B8287EC92E09A8389838AE69D
:2041800099E090938A0980938909F70180818F3209F068C06FE270E0C7010E9426F48C01BE
:2041A0000F5F1F4F9E012F5F3F4F49010115110509F45EC06FE270E0C8010E9426F46C0144
:2041C000009709F456C00817190708F052C05C01A01AB10AA501B801CE0180960E944FF4F1
:2041E000E0E2F0E0EC0FFD1FEA0DFB1D10828E01005E1F4FD8018D918D01882319F00E943F
:204200003935F8CF8AE00E9439356091890970918A096115710511F06C5F7F4F21E0AE01A2
:20422000405E5F4FCE0105960E94DB44811112C0BE01605E7F4F8CEE92E00E94F5AA8EE2BB
:204240000E9439358AE00E943935C4010E9460B10C94612B90928A098092890986010F5FE2
:204260001F4FA4CF8BE899E090938A098093890987016091890970918A096115710511F08A
:204280006C5F7F4F18A21BA222E0A801CE0180960E94DB44811102C0F12C1EC0CE01809689
:2042A0000E9415718823C1F36CA57DA58EA59FA541E00E94F03C882379F3E8A9B0E2EB9F1A
:2042C000F0011124E15DF34F309731F385EE80831BA20E94B03CF82ECE0180960E940B359F
:2042E000FF2019F1E6ECF2E084917F012FEFE21AF20A882321F00E943935F701F5CFD801E5
:204300008D918D01882319F00E943935F8CF8AE00E943935109266091092670910926809B6
:20432000109269090E94407418C0E4EDF2E084917F01BFEFEB1AFB0A882321F00E9439357F
:20434000F701F5CFF80181918F01882319F00E943935F8CF8EE20E943935CE0101960E94F3
:2043600060B10C94612B8091350981110E94B0D280913609882311F40C94612B80E50E94C8
:204380000734882319F00E941A3303C080E50E945C33182F482F61E0809102159091031586
:2043A0000E94BF7F83E50E940734882381F00E94F932AB01BC0140936609509367096093FE
:2043C00068097093690982E39BE00E94E03E0E94A57611110C94612B0E94DD840C94612B1D
:2043E000809102159091031521E02093340940E060E00E94BF7F0C94612B0E946F765CE339
:20440000C52ED12CE12CF12CA70196010E9495F0762E672ECA01B901A70196010E9495F0F8
:204420006B017C01CA01B90128E130E040E050E00E9495F04B015C01C9016DE671E00E94C5
:2044400095F38E010F5F1F4F6115710599F06F927F92DF92CF929F928F929F938F937F9358
:204460006F9388E293E09F938F931F930F930E9453EC12C00097B1F06F927F92DF92CF92E6
:204480009F928F929F938F9388E193E09F938F931F930F930E9453EC0FB6F894DEBF0FBE56
:2044A000CDBF36C081149104A104B10479F06F927F92DF92CF929F928F928CE093E09F9346
:2044C0008F931F930F930E9453ECE6CFC114D104E104F10469F06F927F92DF92CF9284E0AB
:2044E00093E09F938F931F930F930E9453ECD4CF6F927F9280E093E09F938F931F930F9390
:204500000E9453EC0F900F900F900F900F900F9060E0C8010E94E58AEBE6F3E184917F01AC
:20452000BFEFEB1AFB0A882321F00E943935F701F5CFB8018CE393E00E94F5AA8AE00E9453
:2045400039350C94612B83E50E940734882311F40C94612B0E940933E82E80E50E9407346A
:20456000882341F00E94F9328B0177FF02C00C94612B02C006E010E0902FE9E4F3E088E241
:204580008E0F2491921729F031968E13FACF0C94502CEEE5F6E184918F010F5F1F4F8823E4
:2045A00021F00E943935F801F6CFE1E7F3E084918F010F5F1F4F882311F40C94612B0E9482
:2045C0003935F801F4CF0E9470D70C94612B88E690E00E94A63981110C94612B8091510815
:2045E00083FF02C00C94612B83E50E940734882309F440C00E9429330E9415F27093D914C7
:204600006093D81480E00E948FCE0E94293320E030E04AEA52E40E94BAEC18163CF00E94A0
:20462000857560E087E893E00E94C38A0E94293320917D0E30917E0E40917F0E5091800E1B
:204640000E94F7F21816B4F480E093E09F938F938091DF1390E001969F938F9380E893E099
:204660009F938F931F920E94C5840FB6F894DEBF0FBECDBF0E9437E50C94612B8EE40E9405
:204680000734882311F40C94612B0E94F93260932B0C70932C0C80932D0C90932E0C0C9488
:2046A000612B83E50E945C33882359F083E50E940734882319F00E94093301C080E08093D6
:2046C0005108EBE6F3E184918F010F5F1F4F882321F00E943935F801F6CFE4EAF3E084911B
:2046E0008F010F5F1F4F882321F00E943935F801F6CF809151088823A1F146E9C42E43E0D9
:20470000D42EE12CF12C20E08091510890E00E2C02C0959587950A94E2F780FF17C0BB24A5
:20472000B394B20E222319F08CE20E943935F60125913491F901849189010F5F1F4F882314
:2047400021F00E9439359801F5CF2B2DFFEFEF1AFF0A32E0C30ED11C45E0E416F104A1F608
:204760000CC0E0EAF3E084918F010F5F1F4F882321F00E943935F801F6CF8AE00E9439354B
:20478000A0C7109216029DC78BEA93E00E9472B183E50E940734882359F00E9409338D3310
:2047A00018F480936B028DC78CE380936B0289C7EBE6F3E184918F010F5F1F4F882321F0F8
:2047C0000E943935F801F6CF40916B0250E060E070E084EB93E00E9425968AE00E94393554
:2047E00070C78091510883FD6CC783E50E940734882309F466C70E9429330E9415F2673904
:20480000710514F066E970E07093D7146093D6140E9444CE56C789E690E00E94A6398111F1
:2048200011C0EBEBF3E084918F010F5F1F4F882321F00E943935F801F6CF0E9463B68AE0CE
:204840000E9439351092AE131092AD130C94C42F83E50E940734882309F433C70E9409332B
:20486000182F8D3308F01CE31093B3130E940ABB6B017C01212F30E0A8EEB3E00E94C1F0A5
:20488000C60ED71EE81EF91EC092AF13D092B013E092B113F092B21314C78DE690E00E941C
:2048A000A63981110EC78091510883FD0AC783E50E94073468968FAF689781110C94662CB3
:2048C00082E50E94073481110C94662CFAC68091510883FDF6C660E084EF93E00E94C38A55
:2048E00083E50E94073468968FAF689781110C94FB2D82E50E94073481110C94FB2DE1C699
:2049000080E50E940734811108C083E50E940734811108C03FEF20E009C00E9409338111F5
:20492000D0C6F3CF0E94F932362F272F832F922F8F3F910519F010F08FEF90E09093DB14B7
:204940008093DA14BEC680E50E940734811105C01092DB141092DA14B4C60E94F932672B3F
:2049600009F0AFC6F5CF0E949AB80E94B0D20E9468B11092DB141092DA1468EE73E080E008
:2049800090E00E94D6890E94B0D20E94F43160E081E094E00E94C38A94C610929D0391C6C4
:2049A00081E080939D038DC683E50E940734882399F00E94293320E030E04AE754E40E94FE
:2049C0001FED0E941AF260936C0270936D0280936E0290936F0275C688E50E945C338111C8
:2049E0000C94622F89E50E945C3381110C94622F8AE50E945C3381110C94622F85E40E94B6
:204A00005C3381110C94622F0E94B0D20E9468B158C683E50E945C33882309F452C60E944C
:204A2000293320E030E04AE754E40E941FED0E941AF26093BB137093BC138093BD139093AC
:204A4000BE133FC619E7C12E12E0D12E08E1E02E0CE0F02E10E0D6018D916D010E945C331B
:204A6000882309F46DC0133009F063C00E9429334B015C0120E030E040EA51E40E94BAECA4
:204A800087FF4EC0A50194016091240C7091250C8091260C9091270C0E94ADF12B013C01B4
:204AA0009B01AC0160913E1470913F1480914014909141140E941FED60933E1470933F14F2
:204AC0008093401490934114A3019201609112147091131480911414909115140E941FED50
:204AE000609312147093131480931414909315146091A0137091A1138091A2139091A313F6
:204B00000E94BEECA30192010E941FED0E941AF26093A0137093A1138093A2139093A313B8
:204B20008092240C9092250CA092260CB092270C07C00E942933F701608371838283938358
:204B40001F5FF4E0EF0EF11C143009F084CF0E944AACB7C5E5ECF4E084918F010F5F1F4F2F
:204B6000882321F00E943935F801F6CF60E085EB94E00E94433A61E08EEA94E00E94433A1C
:204B800061E083EA94E00E94433A61E083E994E00E94433A60E08AE894E00E94433A61E00E
:204BA00080E894E00E94433A60E086E794E00E94433A60E08EE694E00E94433A60E080E6CD
:204BC00094E00E94433A60E082E594E00E94433A60E083E494E00E94433A61E085E394E0B1
:204BE0000E94433A61E08FE194E00E94433A60E08EE094E00E94433A64C585E40E940734A2
:204C0000882319F00E941A3303C085E40E945C33882361F0EBE6F3E184918F010F5F1F4F72
:204C2000882321F00E943935F801F6CF81E40E940734882319F00E941A3303C081E40E943B
:204C40005C33882361F0EAE8F5E084918F010F5F1F4F882321F00E943935F801F6CF009186
:204C6000021510910315D8018D918D01882309F484CD0E943935F7CFE6EAF5E084918F01C6
:204C80000F5F1F4F882321F00E943935F801F6CFEEE9F5E084918F010F5F1F4F882321F0C5
:204CA0000E943935F801F6CF029B03C001EF12E002C006EF12E0F80181918F01882319F0EC
:204CC0000E943935F8CF8AE00E943935E6E9F5E084918F010F5F1F4F882321F00E94393592
:204CE000F801F6CF069B03C001EF12E002C006EF12E0D8018D918D01882319F00E943935BE
:204D0000F8CF8AE00E943935EEE8F5E084918F010F5F1F4F882321F00E943935F801F6CF9C
:204D2000379B03C001EF12E002C006EF12E0F80181918F01882309F420CD0E943935F7CF4D
:204D400081E08093060980930509BBC483E50E940734882319F00E94F93202C060E070E018
:204D60008B01112702301105CCF0EEE5F6E184918F010F5F1F4F882321F00E943935F8017B
:204D8000F6CFE0ECF5E084918F010F5F1F4F882309F497C40E943935F801F5CF88E40E944E
:204DA00007348823A9F00E94F9326A3A71053CF06530F1E07F072CF064E071E002C06AEAAE
:204DC00070E0F801EE0FFF1FED54F74F7183608386E40E9407348823A9F00E94F932F801C0
:204DE000EE0FFF1FE954F74F718360836F3F710519F014F06FEF70E077FF02C060E070E097
:204E00007183608382E40E940734882309F459C40E94F9326530710534F0683871052CF085
:204E200067E870E002C065E070E0000F111FF801E155F74F7183608344C488EC90E00E9463
:204E4000A63981113EC484E40E945C338823C1F10E94293311E020E030E0A9010E94BAECF8
:204E6000811101C010E01093F10B112349F10E942933E091DF1324E0E29FF0011124E351A2
:204E8000F44F608371838283938320E030E0A9016091ED0B7091EE0B8091EF0B9091F00B19
:204EA0000E94BAEC81110CC080E090E0A0EEBFE38093ED0B9093EE0BA093EF0BB093F00BBA
:204EC0000E94B39EFEC336E1E32E34E1F32E09E712E044E0D42ED00ED8018D918D010E94B3
:204EE0005C33882349F00E9429330E941AF2F7016083718382839383F4E0EF0EF11CD012E9
:204F0000EBCF0E941DABDDC30E94E733DAC30E948B33D7C383E50E940734882309F4D1C3F9
:204F20000E94F9327093150260931402CAC30E94E239C7C38AE50E9407348111E2C783E5BE
:204F40000E9407348111DDC7BCC30E944035B9C30E94CDCAB6C30E94A5C5B3C30E94B0D2D4
:204F6000B0C31092EC0BADC30E94624DAAC30E946552A7C383E50E945C33882321F00E943D
:204F80001A3391E089270E941A9A9BC380E090E0A0E4B0E489839A83AB83BC838D839E8340
:204FA000AF83B88780E090E0A0E2B1E489879A87AB87BC8785E40E945C33882319F00E9403
:204FC000293304C060E070E080E090EC27966CAF7DAF8EAF9FAF27978AE50E940734882301
:204FE00079F08AE50E940734882319F00E94293303C060E070E0CB0169877A878B879C8705
:2050000088E50E940734882379F088E50E940734882319F00E94293303C060E070E0CB0117
:2050200069837A838B839C8389E50E940734882379F089E50E940734882319F00E942933FE
:2050400003C060E070E0CB016D837E838F83988785E50E945C33882319F00E94293304C0FE
:2050600060E070E088EC93EC23966CAF7DAF8EAF9FAF23978CE40E945C33882319F00E9471
:20508000293304C060E070E088EC93E46BAF7CAF8DAF9EAF82E40E940734882321F00E9406
:2050A000F932162F01C015E0E0902509F09026098091B4138111E5C18091510883FD37C08C
:2050C00020E030E0A90123966CAD7DAD8EAD9FAD23970E94BAEC882351F18091810E811172
:2050E00024C02091D8143091D914809164029091650228173907CCF4EEE5F6E184918F01F4
:205100000F5F1F4F882321F00E943935F801F6CFE2EEF5E084918F010F5F1F4F882309F45B
:20512000B0C10E943935F801F5CF0E94DBDA81E08093B41390913509992321F01092350993
:205140008093A5030E9470D780E090E00E940F690E94B0D280E1E8E0FCE0A6EAB3E00190E4
:205160000D928A95E1F720E030E0A90127966CAD7DAD8EAD9FAD27970E94BAEC882329F08E
:205180000E9440B1882309F4F5C682E088A3BE016F5F7F4FCE0180960E94DF9820E030E023
:2051A000A90123966CAD7DAD8EAD9FAD23970E94BAEC882379F081E090E00E940F6980E061
:2051C0000E94BFB140E050E060E271E4CE01CF960E9433DB82E090E00E940F6961E0812F15
:2051E0007CD780E00E94BFB10E941DD964E670E080E090E00E94D6890E940ABBDC01CB01D7
:2052000088539045AF4FBF4F8093651490936614A0936714B093681410925F0883E090E060
:205220009093AE138093AD1381E08093740E01E08091740E882309F440C060E0812F4DD791
:2052400080915F088823A9F188E090E00E940F698091740E882321F081E00E94BFB1F8CF16
:205260001092651410926614109267141092681410925F080E948FCE0E94DBDA82E090E08B
:205280000E940F690E940ABBDC01CB0188539045AF4FBF4F8093651490936614A093671451
:2052A000B093681410925F080093740E61E0812F14D781E00E94BFB1BBCF81E090E0909344
:2052C000AE138093AD138091B413882309F4D9C000915F08109265141092661410926714D5
:2052E0001092681410925F0880E00E948FCE01110E94DBDA61E0812FF0D60E941A3520E017
:2053000030E0A9016BAD7CAD8DAD9EAD0E94BAEC882371F1002321F082E090E00E940F6998
:2053200083E090E09093AE138093AD1381E08093740E8091740E882349F0002339F060E0EA
:20534000812FCBD681E00E94BFB1F3CF81E090E09093AE138093AD1383E090E00E940F6952
:2053600040E050E060EC70E4CE01CB960E9433DB0E9440B1811139C080E090E0A8E4B2E44D
:2053800088A399A3AAA3BBA323E0C22ED12C01E010E04C015D0184E090E00E940F6940E081
:2053A00050E060E470E4CE0180960E9433DBD092AE13C092AD131092740E85E090E00E94C0
:2053C0000F698091940890919508009721F481E00E94BFB1F6CF1093AE130093AD1388A225
:2053E00099A2AAA2BBA20197B1F286E090E00E940F698091B2039091B303A091B403B091D8
:20540000B5038093140C9093150CA093160CB093170C8093CB139093CC13A093CD13B09359
:20542000CE130E941D8580E090E0A8ECB2E488A399A3AAA3BBA39E01205E3F4F40E15CE033
:205440006AEA73E086EA93E0BED680E090E0A0EAB0E488A399A3AAA3BBA3BE01605E7F4FE3
:205460008EEA93E094D787E090E00E940F698091A503882321F00E94A5761092A5031092C7
:20548000B413EA94EF2809F01CC10E94DD8419C180E50E940734882331F00E9409338093FE
:2054A0002A0411E001C010E083E50E940734882329F00E941A3380932B0401C011110E945D
:2054C00035C5EBE6F3E184918F010F5F1F4F882321F00E943935F801F6CF80912B04811150
:2054E0000BC00BE013E0D8018D918D01882309F444C90E943935F7CF60912A0470E08BE019
:2055000096E00E947C968AE00E943935DAC081E0809374021092280C83E50E94073488239D
:2055200019F00E941A3303C083E50E945C338111C8C00E943ED9C5C086E50E945C33882378
:2055400051F00E942933609304027093050280930602909307021CAE1BAE82E793E099A317
:2055600088A39E01255C3F4F44E050E064E072E0CE0180960E94DF3B8BAD9CAD9A8389831D
:20558000E8A0F9A080E793E099A388A39E01255C3F4F42E050E0BE016F5F7F4FCE01809669
:2055A0000E94DF3BEBE6F3E184918F010F5F1F4F882321F00E943935F801F6CFB701605710
:2055C000734087E396E00E947C9649815A8160E070E08BE196E00E942596E8E1F6E084915C
:2055E0008F010F5F1F4F882321F00E943935F801F6CFE9E4F6E084918F010F5F1F4F8823E6
:2056000009F45FC00E943935F801F5CFF0900415FF2021F1EBE6F3E184918F010F5F1F4FB1
:20562000882321F00E943935F801F6CF84E50E9439356F2D70E080E090E04AE00E94403966
:2056400080E20E9439350BE113E0F80181918F01882309F492C80E943935F7CF1092560886
:20566000EBE6F3E184918F010F5F1F4F882321F00E943935F801F6CF6091560870E084E572
:2056800096E00E947C968AE00E9439351AC0EBE6F3E184918F010F5F1F4F882321F00E9408
:2056A0003935F801F6CF6091B5137091B61386E696E00E94F5AA82E20E9439358AE00E9498
:2056C00039351092AE131092AD130E941FD95CC40E949C3480917502882321F08FEB93E139
:2056E0000E9403B00E942E358091510883FD86C0C090CB13D090CC13E090CD13F090CE1302
:205700002091140C3091150C4091160C5091170CC701B6010E94BAEC882309F46FC00E949F
:2057200040B1882301F1C092140CD092150CE092160CF092170CEBE6F3E184918F010F5FF5
:205740001F4F882321F00E943935F801F6CFECE0F2E084918F010F5F1F4F882321F00E94D4
:205760003935F801F6CFC090CB13D090CC13E090CD13F090CE132091140C3091150C40915B
:20578000160C5091170CC701B6010E94D0F09F77E091560824E0E29FF0011124E25FFD4FE5
:2057A00020813181428153810E941FED20E030E048EC53E40E94F7F2181604F5C092140CB2
:2057C000D092150CE092160CF092170CEBE6F3E184918F010F5F1F4F882321F00E9439351B
:2057E000F801F6CFEDEEF1E084918F010F5F1F4F882321F00E943935F801F6CF609114022D
:2058000070911502072E000C880B990B0E94C0EC2091000230910102409102025091030278
:205820000E941FED2AE037ED43E25CE30E941FEDB5D50E94243545CF80E090E0A0E4B0E4F9
:2058400089839A83AB83BC838D839E83AF83B88780E090E0A0E2B1E489879A87AB87BC8783
:2058600080E5D5D7882351F0C4D668A3BE016F5F7F4FCE0180960E94DF9823CF60E0F5CF37
:20588000B8D6AB01BC014093660950936709609368097093690982E39BE00E94E03E11CF23
:2058A00061E0802F0E94CFB96E2D802F0E948DB9F12CB701802F0E940BBA0930110509F069
:2058C00000CFF092DB14E092DA14FBCEC2D60E9415F27093D9146093D81480E00E948FCEF0
:2058E000B8D620E030E04AEA52E40E94BAEC181644F00E94857560E087ED93E00E94C38A44
:2059000002C00E94DD846091D8147091D914072E000C880B990B0E94C0EC20917D0E309134
:205920007E0E40917F0E5091800E0E94F7F21816B4F480E093E09F938F938091DF1390E013
:2059400001969F938F9380ED93E09F938F931F920E94C5840FB6F894DEBF0FBECDBF0E94A3
:2059600037E581E0809316022F961CAE1DAE1EAE1FAE2F9763961CAE1DAE1EAE1FAE6397A5
:2059800028961FAE289764961FAE64979CE36C969FAF6C97ACE1A096AFAFA097B6E4A496FD
:2059A000BFAFA497C12CD12C20E8E22E3FEBF32E812C912C54016091D8147091D914072E32
:2059C000000C880B990B0E94C0EC162F072F782E692E262F372F482F592FB601C7010E94A3
:2059E000BAEC882331F120917D0E30917E0E40917F0E5091800E612F702F872D962D0E9496
:205A0000BAEC881F8827881F28968FAF28976896EFAD6897EE2389F0882379F080911602C8
:205A2000882309F44ECE60E08EEB93E00E94C38A48CE1C2D0D2D7E2C6F2C0E940ABB6B01D6
:205A40007C01DC01CB0163962CAD3DAD4EAD5FAD6397821B930BA40BB50BB7FD3AC0D70133
:205A6000C60188519C4FAF4FBF4F63968CAF9DAFAEAFBFAF63970E9463B6ECECF3E08491CF
:205A80002F019FEF491A590A882319F0F2D7F201F6CF81149104A104B104B9F0D501C40185
:205AA000805F984DAF4FBF4FBC01CD016C197D098E099F0928EE33E040E050E00E9495F0A1
:205AC000CA01B9010E94293A02C08FE3D2D78AE0D0D780E00E94BFB1C1D720907D0E309049
:205AE0007E0E40907F0E5090800E9101A201612F702F872D962D0E94D0F09F7781149104D2
:205B0000A104B10449F420E030E040E85FE30E94BAEC87FF0BC008C020E030E040E450E4AB
:205B20000E94F7F2181614F4460157012896AFAD2897AA2309F443C02F962CAD3DAD4EADDC
:205B40005FAD2F97211531054105510541F0D701C601821B930BA40BB50BB7FD30C09101BB
:205B6000A20164966FAD64976C967FAD6C97A0968FADA097A4969FADA4970E94D0F020E074
:205B800030E040EC5FE30E94BAEC87FD47CFD701C601805A9541AF4FBF4F2F968CAF9DAFFE
:205BA000AEAFBFAF2F9764962FAE64976C963FAE6C97A0964FAEA097A4965FAEA497809193
:205BC0001602882309F42ACF81149104A104B10429F4C12ED02EE72CF62CEDCE90E1C91A3A
:205BE00097E2D90AE108F108C818D908EA08FB08F7FE14CFEECF2DD50E9415F2673971055B
:205C000014F066E970E07093D7146093D6140E9444CE1FD520E030E040EA50E40E94F7F275
:205C2000181614F40E94DD8481E080931602809156088093DF132F961CAE1DAE1EAE1FAE38
:205C40002F9763961CAE1DAE1EAE1FAE639728961FAE289764961FAE6497ACE36C96AFAF62
:205C60006C97BCE1A096BFAFA097E6E4A496EFAFA497C12CD12C80E8E82E9FEBF92E812C06
:205C8000912C54016091D6147091D714072E000C880B990B0E94C0EC162F072F782E692EAD
:205CA000262F372F482F592FB601C7010E94BAEC882331F120916008309161084091620818
:205CC00050916308612F702F872D962D0E94BAEC881F8827881F28968FAF28976896FFAD28
:205CE0006897FF2389F0882379F080911602882309F4E7CC60E086EE93E00E94C38AE1CCAF
:205D00001C2D0D2D7E2C6F2C0E940ABB6B017C01DC01CB0163962CAD3DAD4EAD5FAD639705
:205D2000821B930BA40BB50BB7FD3AC0D701C60188519C4FAF4FBF4F63968CAF9DAFAEAFBF
:205D4000BFAF63970E9463B6E0EFF3E084912F019FEF491A590A882319F08BD6F201F6CF18
:205D600081149104A104B104B9F0D501C401805F984DAF4FBF4FBC01CD016C197D098E095E
:205D80009F0928EE33E040E050E00E9495F0CA01B9010E94293A02C08FE36BD68AE069D613
:205DA00080E00E94BFB15AD6209060083090610840906208509063089101A201612F702F17
:205DC000872D962D0E94D0F09F7781149104A104B10449F420E030E040E85FE30E94BAEC51
:205DE00087FF0BC008C020E030E040E450E40E94F7F2181614F4460157012896AFAD2897E9
:205E0000AA2309F443C02F962CAD3DAD4EAD5FAD2F97211531054105510541F0D701C60188
:205E2000821B930BA40BB50BB7FD30C09101A20164966FAD64976C967FAD6C97A0968FAD2B
:205E4000A097A4969FADA4970E94D0F020E030E040EC5FE30E94BAEC87FD47CFD701C601E9
:205E6000805A9541AF4FBF4F2F968CAF9DAFAEAFBFAF2F9764962FAE64976C963FAE6C97C5
:205E8000A0964FAEA097A4965FAEA49780911602882309F42ACF81149104A104B10429F4AB
:205EA000C12ED02EE72CF62CEDCE90E1C91A97E2D90AE108F108C818D908EA08FB08F7FEC8
:205EC00014CFEECF0E94B0D288E5F6D3882319F0429A1092560489E5EFD3882319F0179AA7
:205EE000109257048AE5E8D3882319F0159A1092580485E4E1D3882309F4E3CB0E941DD90F
:205F0000E0CBA7D320E030E040E050EC0E94BAEC87FD10C09ED320E030E040E050E40E94DD
:205F2000F7F2181614F095D309C060E070E080E090E404C060E070E080E090EC2091200CA4
:205F40003091210C4091220C5091230CE0915804EE2309F4B6CB00916A0810916B080E942F
:205F60001FED0E9415F2600F711F70936B0860936A08A7CB40E050E060E772E4CE018D5B7C
:205F80009F4F0E9433DB01C9C258DF4F0FB6F894DEBF0FBECDBFDF91CF911F910F91FF905B
:205FA000EF90DF90CF90BF90AF909F908F907F906F905F904F903F902F9008959091650823
:205FC000E92FF0E0E45DFB4F80839F5F9A3018F49093650802C01092650880911A088F5FF5
:205FE00080931A0808958FB7F8949091881520918715291759F0E92FF0E0E95FFA4E208150
:2060000030E09F5F9F779093881502C02FEF3FEF8FBFC90108950F931F93CF93DF93EC01C4
:206020000E940ABB0E811F8128853985011511052105310559F52C852223A9F13A852150C9
:206040002C8721E0230F2A874D85241301C01A86FE0124E0329FE00DF11D11240685178514
:20606000208931890A831B832C833D83DC01CB01800F911FA11DB11D8E839F83A887B9870D
:206080008C819D81892B79F05B9A0DC0DC01CB01801B910BA20BB30BB7FD05C05B981E829F
:2060A0001F8218861986DF91CF911F910F910895EF920F931F93E090560800E012E024E1CB
:2060C0003CE040E15CE06CE07CE088E09CE00E9474AC1F910F91EF900895CF92DF92EF923A
:2060E000FF920F931F93CF93DF9300D01F92CDB7DEB7182F662351F01092230410921F04AE
:206100001092200410922104109222040E940ABBC0901F04D0902004E0902104F090220491
:206120009B01AC012C193D094E095F0957FD3EC017FD16C040912304212F012E000C330BCF
:206140002C5F3F4FE42F042E000CFF0B2E173F076CF141172CF000E911E020E030E004C0C1
:2061600004EC19E020E030E0DC01CB01800F911FA21FB31F80931F0490932004A0932104D6
:20618000B093220480ED97E09C838B838CE291E09A838983BE016D5F7F4FCE0101960E941C
:2061A0009184809123048F5F809323040F900F900F900F90DF91CF911F910F91FF90EF90C0
:2061C000DF90CF9008952F923F924F925F926F927F928F929F92AF92BF92CF92DF92EF92A7
:2061E000FF920F931F93CF93DF9300D01F92CDB7DEB71C017A8369835C834B8389018090FF
:20620000000290900102A0900202B0900302F901C080D180E280F38020E030E0A901C701FE
:20622000B6010E94BAEC811106C0E4E5F2E2C590D590E590F490EB81FC81208131814281B8
:2062400053816091100C7091110C8091120C9091130C0E94BAEC87FF17C0C0920002D09275
:206260000102E0920202F0920302EB81FC8180819181A281B3818093100C9093110CA09329
:20628000120CB093130C14DFF801408051806280738020E030E0A901C301B2010E94BAECB3
:2062A000811107C085E5482E542C85E0682E83E4782E40920002509201026092020270926C
:2062C0000302F10180819181A281B3818093080C9093090CA0930A0CB0930B0CE981FA8176
:2062E00080819181A281B38180930C0C90930D0CA0930E0CB0930F0CDBDEEB81FC812081DF
:206300003181428153816091100C7091110C8091120C9091130C0E94F7F21816BCF4C092DF
:206320000002D0920102E0920202F0920302EB81FC8180819181A281B3818093100C909354
:20634000110CA093120CB093130CB2DE0E94B0D28092000290920102A0920202B092030203
:206360000F900F900F900F90DF91CF911F910F91FF90EF90DF90CF90BF90AF909F908F90C9
:206380007F906F905F904F903F902F9008959B01AC016CE07CE088E09CE015CFEF920F931A
:2063A0001F93CF93DF9300D01F92CDB7DEB769837A838B839C83E09056088E010F5F1F4F6E
:2063C0002BEC33E147EC53E163EC73E18FEB93E10E9474AC0F900F900F900F90DF91CF918C
:2063E0001F910F91EF900895809A88980895CF93FC0180818B33A1F080911A088A3080F44A
:20640000C62FBF018091650820E6829FC0011124875A9B4F0E943AF48C2FD0DD81E001C007
:2064200080E0CF910895DF92EF92FF920F931F93CF93DF93CDB7DEB76E970FB6F894DEBF48
:206440000FBECDBF60913A0E70913B0E6115710549F14DE150E0CE0101967C010E942AEC41
:206460001E8EF7018F010E191F09D190DD2019F09AE0D912F7CFF701E00FF11F1082C701B6
:206480000E94EC70882371F0DD20A9F00F5F1F4F80913A0E90913B0E080F191F10933B0E82
:2064A00000933A0E81E020913A0E30913B0E232B29F480E003C000E010E0F0CF6E960FB6B7
:2064C000F894DEBF0FBECDBFDF91CF911F910F91FF90EF90DF90089524E13CE040E15CE082
:2064E0006CE07CE088E09CE00C9487AB8F929F92BF92CF92DF92EF92FF920F931F93CF9301
:20650000DF93CDB7DEB728970FB6F894DEBF0FBECDBFB02EC12ED22EF32E8C01000F111F30
:20652000000F111FC801885F934F4C01FC0110821182128213824D835E836F837887CCDFA5
:206540004D815E816F817885F4014083518362837383E090560820E030E0A9016B2D7C2D71
:206560008D2D9F2D0E94BAEC811108C0F801E45BFD4D85919591A591B49104C08B2D9C2D75
:20658000AD2DBF2D89839A83AB83BC838E010F5F1F4F24E13CE040E15CE06CE07CE088E0A6
:2065A0009CE00E9474AC0E94B0D21092520428960FB6F894DEBF0FBECDBFDF91CF911F91FC
:2065C0000F91FF90EF90DF90CF90BF909F908F9008958091B6039091B703009731F04AE07E
:2065E00050E060E070E00C94D6EA60E070E0CB0108958091B6039091B703009731F04AE0FB
:2066000050E060E070E00C94AEE960E070E0CB010895EFDF97FD0AC0ECDF6F3F71058105E9
:20662000910509F02CF4E5DF862F089580E008958FEF08958091B6039091B703892B31F003
:20664000E8DF91E0811103C090E001C091E0892F08950F931F93CF938091B6039091B7035B
:206660000097F1F0FC018F01C1912C2F2F7D89F0C53411F0C536B9F7F801108260E070E083
:206680000E9448E8F801C083562F472F382F292F0BC060E070E0CF911F910F910C9448E857
:2066A00050E040E030E020E0652F742F832F922FCF911F910F91089581548A3150F5482F37
:2066C00050E0FA0193E0F595E7959A95E1F7E250FB4E208130E08770B90102C0759567956A
:2066E0008A95E2F760FF15C0FA01EC51FB4E2081222339F08091B5139091B613820F911DDC
:2067000002C080E090E09093B7038093B60381E0089580E0089583E5CFDF882349F099DFD1
:206720006093021470930314809304149093051484E5C2DF882349F08CDF6093FE1370936F
:20674000FF13809300149093011482E4B5DF882349F03FDF609390137093911380939213D7
:206760009093931388E5A8DF882349F072DF6093321470933314809334149093351489E56F
:206780009BDF882349F065DF609336147093371480933814909339148AE58EDF882349F03D
:2067A00058DF60933A1470933B1480933C1490933D1485E481DF882349F04BDF60933E141C
:2067C00070933F1480934014909341140895FF920F931F93CF93DF9306E014E1C9E7D2E0F1
:2067E000FC2E84E0F80E899167DF882331F031DFF80160837183828393830C5F1F4FFC12F7
:20680000F2CFDF91CF911F910F91FF90089554DF882341F081E02091B6033091B703232BC8
:2068200009F480E00895CF93DF9300D01F92CDB7DEB783E5ECDF882311F0DBDE02C064E052
:2068400071E07C836B8380E5E2DF882331F0D1DE693883E1780730F402C068EE73E07A8349
:20686000698304C088E893E19A838983BE016D5F7F4FCE0101960E9491840F900F900F9008
:206880000F90DF91CF910895CF92DF92EF92FF921F93CF93DF9380E50FDF882309F444C083
:2068A000A8DE6B017C0183E5B2DF882319F0A1DEEB0102C0CFEFDFEFCE0101960397A0F56E
:2068C000D7FC32C09C2DE9E4F3E088E28E0F2491921751F131968E13FACF0E94B0D21C2D45
:2068E00060E08C2D0E94CFB9CF3F8FEFD80759F48C2D0E9465B931E020E0892B09F030E076
:20690000C32FD22F04C0219761F0C0E0D0E0812F0E9465B98C179D0739F080E00E94BFB115
:20692000F6CFC1E0D0E0F3CFDF91CF911F91FF90EF90DF90CF900895BF92CF92DF92EF92E2
